:06057300D292C29380FA4F
:100463008F0FE50F14FF120003AF0F120557AF0FE5
:0A047300120565E50F14FF020549AC
:100493008F10120542AF1012055EAF1012056CAF3C
:0404A30010020550EE
:0C05360012057F12058912058E02058453
:1004F6008F11120003AF1112054912058902058EEC
:100506008F12120557AF1212056512057F02058478
:100516008F13120542AF1312055012058902058E7C
:100526008F1412055EAF1412056C12057F02058446
:1004A7008F15120003AF1512055EAF1512056CAF5D
:0404B70015020549DC
:1004BB008F16120557AF16120542AF16120550AF25
:0404CB0016020565AB
:10047D00EF1FAC0670011E4C600B007D027CC7DCCB
:05048D00FEDDFC80EB28
:010492002247
:1004CF00758911758AA4758CFFC28DD28CD2A9D271
:0404DF00AFC2B922CD
:070003008F0ED290C2912282
:070542008F0EC290D291223E
:05057F00C290C29122B0
:070549008F0ED292C2932233
:070550008F0EC292D293222C
:05058400C292C29322A7
:070557008F0CD294C2952223
:07055E008F0CC294D295221C
:05058900C294C295229E
:070565008F0CD296C2972211
:07056C008F0CC296D297220A
:05058E00C296C2972295
:03000B0002042BC1
:10042B00C0E0C0F0C0D0758AA4758CFF050DE50D3A
:10043B0075F0148485F00DE50DC3950E5004D2A50F
:10044B008002C2A5E50DC3950C5004D2A48002C254
:08045B00A4D0D0D0F0D0E032B3
:1002810030B40E30B50B30B60830B7057F09120413
:100291006320B41F30B51C20B61920B7167F091290
:1002A100050620B40E20B50B20B60820B7057F093E
:1002B10012046320B41F20B51C30B61920B7167F75
:1002C100091204F620B40E20B50B20B60820B7059C
:1002D1007F0912046330B43030B52D20B62A20B71F
:1002E100277F091204637F327E0012047D20B41837
:1002F10020B51520B61220B70F1205367F327E00C9
:1003010012047D7F091204BB20B43020B52D30B614
:100311002A30B7277F091204637F327E0012047DE1
:1003210020B41820B51520B61220B70F1205367F5C
:0C033100327E0012047D7F091204A72216
:04059300020A001444
:05057900007F06DFFE1B
:01057E00225A
:1003C900758911E4F58BF58DD2A6120579C2A6308F
:1003D900A7FDD28E20A7FDC28EAF8DEFFEAD8B7C1F
:1003E90000E42DFDEC3EFCE41201B97B9A7A99797F
:1003F900D9783F12000EE4FBFA79C8784212011746
:100409001201F28E088F09C3E509950BE508950AD3
:10041900500A1205367FE87E0302047D7F09120423
:0204290063224C
:1004E300758911E4F58BF58DC28FD28ED2ABD2AF65
:0304F300C2BB2267
:10000E00EC4D6011E8497017ED33EC3304600DE4EC
:10001E00FCFFFEFD22E933E8330470F802025E12A3
:10002E00022958046009E4CC2481500628500902A4
:10003E000268284003020265C0E0EB4A7044B980B2
:10004E0006D0E0FB020254EF4E701CBD8008EBFFA1
:10005E00EAFEE9FD80EBE98DF0A4FEE5F00200F783
:10006E00E9CDF9EAFEEBFFEF89F0A4FCE5F0CE89CD
:10007E00F0A42EFFE435F0CD89F0A42DFEE435F08A
:10008E008067EF4E7005BD80D780C3EF8BF0A4ACB8
:10009E00F0EE8BF0A42CFCE435F0F8EF8AF0A42CF3
:1000AE00E5F038FCE433CB8DF0A42CFCE5F03BF806
:1000BE00EE8AF0A42CFCE5F038F8E433CF89F0A4F6
:1000CE002CFCE5F038CF3400CE89F0A42FFFE5F0FC
:1000DE003EFEE433C98DF0A42EFEE5F039CD8AF054
:1000EE00A42FFFE5F03EFEE43DFD33D0E0FB5007CC
:1000FE000BBB000F020268EC2CFCEF33FFEE33FE5D
:06010E00ED33FD0202408A
:10011400020268EC5D046005E85904700302025EA3
:10012400120229580460F6EC4860F2EC7004FDFEFB
:10013400FF22C860DB2481C85009C39860025006BE
:100144000202659850CAF582E9294B4A7005AB82D0
:1001540002025475F0007C1A7880C3EF9BEE9AED8E
:1001640099400DC3EF9BFFEE9AFEED99FDE842F036
:10017400DC23ACF0D0E0FFD0E0FED0E0FDAB822089
:10018400E7101BEB60BAEC2CFCEF33FFEE33FEED13
:1001940033FD020240E803F830E705C0F075F000D3
:1001A400EF2FFFEE33FEED33FD40B830E7C280AAF7
:1001B40075F020800E75F010800575F0087D007EC6
:1001C400007F003392D530D503120273EC33401014
:1001D400EF33FFEE33FEED33FDEC33FCD5F0ED22CF
:0E01E400E5F0247EA2D513CC92E7CDCEFF220B
:1001F200EDD2E7CD33EC3392D524814006E4FFFE05
:10020200FDFC22FCE4CFCECDCC24E0501174FF8063
:10021200EDC3CC13CCCD13CDCE13CECF13CF047000
:07022200F030D5DE0202738B
:10022900E9D2E7C933E833F892D5EDD2E7CD33EC1B
:0702390033FC5002B2D52294
:10024000EC30E7100FBF000C0EBE00080DBD00041F
:100250000BEB6014A2D5EB13FCED92E7FD2274FFCB
:10026000FCFDFEFF22E480F8A2D574FF13FC7D8024
:03027000E480EF38
:0300000002033DBB
:0C033D00787FE4F6D8FD75811602038479
:0E027300C3E49FFFE49EFEE49DFDE49CFC229C
:10034900020573E493A3F8E493A34003F68001F252
:1003590008DFF48029E493A3F85407240CC8C333B5
:10036900C4540F4420C8834004F456800146F6DF84
:10037900E4800B0102040810204080900593E47E7C
:10038900019360BCA3FF543F30E509541FFEE49379
:10039900A360010ECF54C025E060A840B8E493A340
:1003A900FAE493A3F8E493A3C8C582C8CAC583CA6B
:1003B900F0A3C8C582C8CAC583CADFE9DEE780BE23
:010597000063
:00000001FF
